{
  "contractName": "AccountabilityRing",
  "abi": [
    {
      "constant": true,
      "inputs": [],
      "name": "owner",
      "outputs": [
        {
          "name": "",
          "type": "address"
        }
      ],
      "payable": false,
      "stateMutability": "view",
      "type": "function",
      "signature": "0x8da5cb5b"
    },
    {
      "constant": true,
      "inputs": [],
      "name": "ringId",
      "outputs": [
        {
          "name": "",
          "type": "uint256"
        }
      ],
      "payable": false,
      "stateMutability": "view",
      "type": "function",
      "signature": "0xf4b6e01e"
    },
    {
      "inputs": [],
      "payable": false,
      "stateMutability": "nonpayable",
      "type": "constructor",
      "signature": "constructor"
    },
    {
      "anonymous": false,
      "inputs": [
        {
          "indexed": false,
          "name": "name",
          "type": "string"
        },
        {
          "indexed": false,
          "name": "description",
          "type": "string"
        },
        {
          "indexed": false,
          "name": "creationTime",
          "type": "uint256"
        },
        {
          "indexed": false,
          "name": "ringId",
          "type": "uint256"
        }
      ],
      "name": "LogRingAdded",
      "type": "event",
      "signature": "0xc1f18a27f9929df530005aa7cfca19332c9553f0dc17d151fe72ad401fbf01fc"
    },
    {
      "anonymous": false,
      "inputs": [
        {
          "indexed": false,
          "name": "member",
          "type": "address"
        },
        {
          "indexed": false,
          "name": "ringId",
          "type": "uint256"
        }
      ],
      "name": "LogRingJoined",
      "type": "event",
      "signature": "0x75909fd683e1e9f101fc37dfb30954e61dd60299b7215640cb2448bee0107f91"
    },
    {
      "anonymous": false,
      "inputs": [
        {
          "indexed": false,
          "name": "member",
          "type": "address"
        },
        {
          "indexed": false,
          "name": "ringId",
          "type": "uint256"
        },
        {
          "indexed": false,
          "name": "currentWeek",
          "type": "uint256"
        }
      ],
      "name": "LogProofUploaded",
      "type": "event",
      "signature": "0x860e06ad602e9abdaca699b437fba31cce257d63a5656a85d4cc6d257ef5a305"
    },
    {
      "anonymous": false,
      "inputs": [
        {
          "indexed": false,
          "name": "evaluator",
          "type": "address"
        },
        {
          "indexed": false,
          "name": "evaluated",
          "type": "address"
        },
        {
          "indexed": false,
          "name": "vote",
          "type": "bool"
        }
      ],
      "name": "LogVoteRecorded",
      "type": "event",
      "signature": "0xc53c84cb1e603165a591df7ea4ac46030917eec14eb81e76ef5abfd3ee785d72"
    },
    {
      "anonymous": false,
      "inputs": [
        {
          "indexed": false,
          "name": "owner",
          "type": "address"
        },
        {
          "indexed": false,
          "name": "balance",
          "type": "uint256"
        },
        {
          "indexed": false,
          "name": "eventId",
          "type": "uint256"
        }
      ],
      "name": "LogRingEnded",
      "type": "event",
      "signature": "0x41d803c098303317077a22b6ad583937f9deee6ce79ef2f597a4d58290080c9a"
    },
    {
      "constant": false,
      "inputs": [
        {
          "name": "_name",
          "type": "string"
        },
        {
          "name": "_description",
          "type": "string"
        },
        {
          "name": "_proofCriteria",
          "type": "string"
        },
        {
          "name": "_stake",
          "type": "uint256"
        }
      ],
      "name": "addRing",
      "outputs": [
        {
          "name": "",
          "type": "uint256"
        }
      ],
      "payable": true,
      "stateMutability": "payable",
      "type": "function",
      "signature": "0x3f26be10"
    },
    {
      "constant": false,
      "inputs": [
        {
          "name": "ringId",
          "type": "uint256"
        }
      ],
      "name": "joinRing",
      "outputs": [],
      "payable": true,
      "stateMutability": "payable",
      "type": "function",
      "signature": "0x630bb7d3"
    }
  ],
  "bytecode": "0x608060405234801561001057600080fd5b50336000806101000a81548173ffffffffffffffffffffffffffffffffffffffff021916908373ffffffffffffffffffffffffffffffffffffffff16021790555033600160006101000a81548173ffffffffffffffffffffffffffffffffffffffff021916908373ffffffffffffffffffffffffffffffffffffffff1602179055506000600281905550610847806100a96000396000f3fe608060405260043610610062576000357c0100000000000000000000000000000000000000000000000000000000900463ffffffff1680633f26be1014610067578063630bb7d31461026e5780638da5cb5b1461029c578063f4b6e01e146102f3575b600080fd5b6102586004803603608081101561007d57600080fd5b810190808035906020019064010000000081111561009a57600080fd5b8201836020820111156100ac57600080fd5b803590602001918460018302840111640100000000831117156100ce57600080fd5b91908080601f016020809104026020016040519081016040528093929190818152602001838380828437600081840152601f19601f8201169050808301925050505050505091929192908035906020019064010000000081111561013157600080fd5b82018360208201111561014357600080fd5b8035906020019184600183028401116401000000008311171561016557600080fd5b91908080601f016020809104026020016040519081016040528093929190818152602001838380828437600081840152601f19601f820116905080830192505050505050509192919290803590602001906401000000008111156101c857600080fd5b8201836020820111156101da57600080fd5b803590602001918460018302840111640100000000831117156101fc57600080fd5b91908080601f016020809104026020016040519081016040528093929190818152602001838380828437600081840152601f19601f8201169050808301925050505050505091929192908035906020019092919050505061031e565b6040518082815260200191505060405180910390f35b61029a6004803603602081101561028457600080fd5b81019080803590602001909291905050506106b8565b005b3480156102a857600080fd5b506102b161074b565b604051808273ffffffffffffffffffffffffffffffffffffffff1673ffffffffffffffffffffffffffffffffffffffff16815260200191505060405180910390f35b3480156102ff57600080fd5b50610308610770565b6040518082815260200191505060405180910390f35b60008060009054906101000a900473ffffffffffffffffffffffffffffffffffffffff1673ffffffffffffffffffffffffffffffffffffffff163373ffffffffffffffffffffffffffffffffffffffff1614151561037b57600080fd5b81341015151561038a57600080fd5b600160009054906101000a900473ffffffffffffffffffffffffffffffffffffffff1673ffffffffffffffffffffffffffffffffffffffff166108fc349081150290604051600060405180830381858888f193505050501580156103f2573d6000803e3d6000fd5b506000600254905085600360008381526020019081526020016000206000019080519060200190610424929190610776565b508460036000838152602001908152602001600020600101908051906020019061044f929190610776565b508360036000838152602001908152602001600020600201908051906020019061047a929190610776565b50600660036000838152602001908152602001600020600301819055508260036000838152602001908152602001600020600401819055504260036000838152602001908152602001600020600501819055506203f480420160036000838152602001908152602001600020600601819055506249d4006201518042010160036000838152602001908152602001600020600701819055506000600360008381526020019081526020016000206008018190555060006003600083815260200190815260200160002060090160006101000a81548160ff0219169083600481111561056157fe5b0217905550600060036000838152602001908152602001600020600b018190555060016002600082825401925050819055507fc1f18a27f9929df530005aa7cfca19332c9553f0dc17d151fe72ad401fbf01fc86864284604051808060200180602001858152602001848152602001838103835287818151815260200191508051906020019080838360005b838110156106085780820151818401526020810190506105ed565b50505050905090810190601f1680156106355780820380516001836020036101000a031916815260200191505b50838103825286818151815260200191508051906020019080838360005b8381101561066e578082015181840152602081019050610653565b50505050905090810190601f16801561069b5780820380516001836020036101000a031916815260200191505b50965050505050505060405180910390a180915050949350505050565b600360008281526020019081526020016000206004015434101515156106dd57600080fd5b7f75909fd683e1e9f101fc37dfb30954e61dd60299b7215640cb2448bee0107f913382604051808373ffffffffffffffffffffffffffffffffffffffff1673ffffffffffffffffffffffffffffffffffffffff1681526020018281526020019250505060405180910390a150565b6000809054906101000a900473ffffffffffffffffffffffffffffffffffffffff1681565b60025481565b828054600181600116156101000203166002900490600052602060002090601f016020900481019282601f106107b757805160ff19168380011785556107e5565b828001600101855582156107e5579182015b828111156107e45782518255916020019190600101906107c9565b5b5090506107f291906107f6565b5090565b61081891905b808211156108145760008160009055506001016107fc565b5090565b9056fea165627a7a723058203485e42f095c16b3bad992b1ec54767f3761d2a8fc36fbbae0db4b2cf6e7fe560029",
  "source": "pragma solidity ^0.5.0;\n\n/* \nThe AccountabilityRing contract keeps track of the details and state of multiple accountability rings\n*/\n\n/*\nImport OpenZeppelin Pausable contract, to have an emergency switch for freezing all token transfers in the event\nof a large bug.\n*/\n//import '@openzeppelin/contracts/lifecycle/Pausable.sol\";\n\ncontract AccountabilityRing {//is Pausable {\n\n  /*\n      Define an public owner variable. Set it to the creator of the contract when it is initialized.\n      masterPool is where revoked stakes are sent.\n      State tracks the state of the ring - proposed when ring is initiated and accepting members, ready when member cap reached,\n      failed if members number (6 in this case) not reached in time, active when ring is in operation, complete when finished.\n  */\n  address payable public owner;\n  address payable masterPool;\n  enum State { Proposed, Ready, Failed, Active, Complete }\n\n  /*\n      Create a variable to keep track of the ring ID numbers.\n  */\n  uint public ringId;\n\n  /*\n      Define a User struct.\n      A user has its own wallet address, a mapping of own proofs by week, and a record of valid/not valid votes for other\n      user proof submissions\n  */\n  struct User {\n    address user;\n    mapping (uint => string) proofs; // own proofs uploaded weekly\n    mapping (uint => mapping(address => bool)) votes; // this user's votes on whether other submissions were valid, by week\n  }\n\n  /*\n      Define a Ring struct.\n      The struct has the following fields: name, description of the ring, details about the criteria for proof,\n      total number of partipants (set to 6, but potentially extensible later on), stake needed to join in gwei,\n      time tracking fields, the state of the ring, and list of users and whether they are currently active or not,\n      the current balance of the ring pool.\n  */\n  struct Ring {\n      string name;\n      string description;\n      string proofCriteria;\n      uint totalParticipants;  // set to 6 in this implementation\n      uint stake; // in Eth\n      uint creationTime;\n      uint startTime;\n      uint endTime;\n      uint currentWeek;\n      State state;\n      mapping (address => bool) members; // keep track of which users are active in a ring\n      uint ringPoolBalance;\n  }\n\n  /*\n      Create a mapping to keep track of the rings.\n      The mapping key is an integer ringId, the value is a Ring struct.\n  */\n    mapping (uint => Ring) rings;\n\n  /* \n      Add event logs\n  */\n    event LogRingAdded(string name, string description, uint creationTime, uint ringId);\n    event LogRingJoined(address member, uint ringId);\n    event LogProofUploaded(address member, uint ringId, uint currentWeek);\n    event LogVoteRecorded(address evaluator, address evaluated, bool vote);\n    event LogRingEnded(address owner, uint balance, uint eventId);\n  \n  /*\n      Create a modifier that throws an error if the msg.sender is not the owner.\n  */\n    modifier onlyOwner {require(msg.sender == owner); _;}\n\n  constructor() public {\n    owner = msg.sender;\n    masterPool = msg.sender; // MasterPool initially set to msg.sender but different address can be selected\n    ringId = 0;\n  }\n\n  /*\n      Creates a new ring\n  */\n    function addRing(string memory _name, string memory _description, string memory _proofCriteria,\n    uint _stake) \n        public payable onlyOwner\n        returns (uint)\n        {\n            require(msg.value >= _stake);  // check to make sure at least the stake amount was sent\n            masterPool.transfer(msg.value); // send the stake to the masterPool for safekeeping\n\n            uint myId;\n            myId = ringId;\n\n            rings[myId].name = _name;\n            rings[myId].description = _description;\n            rings[myId].proofCriteria = _proofCriteria;\n            rings[myId].totalParticipants = 6; // hard-coded 6 participants per Ring currently\n            rings[myId].stake = _stake;\n            rings[myId].creationTime = now;\n            rings[myId].startTime = now+ 3 days; // if enough members, Ring launches in 3 days time\n            rings[myId].endTime = now + 1 days + 8 weeks; // Ring ends 8 weeks after the start time\n            rings[myId].currentWeek = 0;\n            rings[myId].state = State.Proposed;\n            rings[myId].ringPoolBalance = 0;\n\n            ringId += 1;\n            emit LogRingAdded(_name, _description, now, myId);\n            return myId;\n    }\n\n/*\n    readRing() function takes one parameter, the ringNum, and returns information about the ring.\n\n    function readRing(uint ringNum)\n        public view\n        returns (string memory name, string memory description, string memory proofCriteria, uint stake, uint startTime,\n        uint endTime, uint currentWeek, State state)\n        {\n            return(rings[ringNum].name, rings[ringNum].description, rings[ringNum].proofCriteria, rings[ringNum].stake, rings[ringNum].startTime,\n            rings[ringNum].endTime, rings[ringNum].currentWeek, rings[ringNum].state);\n        }\n*/\n\n/*\n    Joins an existing ring if not already full and within the time parameters\n*/\n    function joinRing(uint ringId) public payable {\n        //require(rings[ringId].state = State.Proposed); // check that ring has been proposed as is not full\n        require(msg.value >= rings[ringId].stake); // check that the stake has been sent\n\n        emit LogRingJoined(msg.sender, ringId);\n    }\n\n}\n",
  "sourcePath": "/Users/Audrey/Documents/GitHub/consensys-devbootcamp-final/accountability-rings-contracts/contracts/AccountabilityRing.sol",
  "compiler": {
    "name": "solc",
    "version": "0.5.0+commit.1d4f565a.Emscripten.clang"
  },
  "schemaVersion": "3.0.8",
  "updatedAt": "2020-01-24T20:39:53.238Z",
  "devdoc": {
    "methods": {}
  },
  "userdoc": {
    "methods": {}
  }
}